:020000040800F2
:1000000000200020190400086504000865040008A9
:1000100000000000000000000000000000000000E0
:10002000000000000000000000000000650400085F
:1000300000000000000000006504000865040008DE
:1000400065040008650400086504000865040008EC
:1000500065040008650400086504000865040008DC
:1000600065040008650400086504000865040008CC
:10007000650400086504000865040008ED03000835
:10008000650400086504000800000000650400081D
:10009000650400086504000865040008650400089C
:1000A000650400086504000865040008650400088C
:1000B000650400080000000065040008000000005E
:1000C0005FF808F180B582B000AF78600A00FB1CD1
:1000D0001A70FB1C1B78002B06D0094B084A51698B
:1000E0007A680A435A6106E0054B054A5269796805
:1000F000C9430A405A61C046BD4602B080BDC046F1
:100100000010024080B582B000AF78600A00FB1C8E
:100110001A70FB1C1B78002B06D0094B084A91690A
:100120007A680A439A6106E0054B054A9269796844
:10013000C9430A409A61C046BD4602B080BDC04670
:100140000010024080B582B000AF78600A00FB1C4E
:100150001A70FB1C1B78002B06D0094B084AD1698A
:100160007A680A43DA6106E0054B054AD269796884
:10017000C9430A40DA61C046BD4602B080BDC046F0
:100180000010024080B500AF01210120FFF7DAFF27
:100190001B4B1A68FA239900100001F07FFD030041
:1001A0009BB2013B9AB2174B1A80164B1A88164B1A
:1001B0001A80154B0A225A60134A8023DB0511006E
:1001C000180001F095FA114B0F221A700F4B002204
:1001D0005A700E4B01229A700C4B180001F008FD6A
:1001E0008023DB0501220121180001F011FC80238E
:1001F000DB050121180001F0F3FAC046BD4680BDC1
:1002000040000020560000206000002080000020F8
:1002100080B500AF8023DB0201211800FFF772FFD9
:100220002E4B1A68FA239900100001F037FD0300E5
:100230009BB2013B9AB22A4B1A80294B1B88DB18D0
:100240009AB2284B1A80284B1B781A00254B1B8822
:10025000013B53436421180001F020FD03009AB2D2
:10026000224B1A80224B00221A801E4B1B881A0038
:100270001F4B5A601E4B1F4A1900100001F038FA3C
:100280001D4B60221A801C4B01225A801A4B0422FB
:100290009A80194B00229A81174B0822DA81164B5B
:1002A000802252001A82144B00225A820F4B1B8864
:1002B0001A00114B9A60104B0E4A1900100001F001
:1002C000D5FA0C4B0121180001F08AFA094B0121E3
:1002D000180001F0A5FAC046BD4680BD40000020D0
:1002E000560000205400002000000020580000208C
:1002F00060000020004801406C00002080B584B000
:1003000000AF0200FB1D1A70FB1D1B780A4A128801
:10031000013A53436421180001F0C0FC03001A00A5
:100320000E23FB181A80054B0E22BA1812885A6346
:10033000C046BD4604B080BD5400002000480140C6
:1003400080B500AF024B1B781800BD4680BDC0468B
:100350000000002080B582B000AF0200FB1D1A70C3
:10036000064BFA1D12781A70FB1D1B781800FFF758
:10037000C5FFC046BD4602B080BDC046000000209B
:1003800080B584B000AF78607A6813005B009B187A
:100390001B01FB60C046FB685A1EFA60002BFAD1B5
:1003A000C046BD4604B080BD80B584B000AF786063
:1003B0007B68962252015343FB60C046FB685A1E7D
:1003C000FA60002BFAD1C046BD4604B080BDC046DD
:1003D00080B500AF00F048F8FFF71AFFFFF7D2FE34
:1003E00000F0B6F800F0DCF8FCE7C04680B500AFDE
:1003F0008023DB050121180001F034FB031E07D028
:100400008023DB050121180001F06CFB01F0A6FB45
:10041000C046BD4680BDC0460C488546002103E06D
:100420000B4B5B58435004310A480B4B42189A421D
:10043000F6D30A4A02E0002313600432084B9A42C2
:10044000F9D300F075FFFFF7C3FFFEE7002000209F
:10045000D820000800000020540000205400002094
:1004600088000020FEE7000080B582B000AF802346
:100470009B0201211800FFF725FE8023DB020121EA
:100480001800FFF71FFE80231B0301211800FFF750
:1004900019FE3B00C02292001A603B0001221A7133
:1004A0003B0000229A713B000122DA713B000022DE
:1004B0005A713B00244A1900100000F0EFFF3B0086
:1004C00001221A603B0000221A713B0000225A717F
:1004D0003B000222DA713A009023DB05110018007C
:1004E00000F0DCFF3B00802292001A603B000222F9
:1004F0001A713B0000229A713B000222DA713B0024
:1005000000225A713B00114A1900100000F0C6FF8A
:100510000E4B02220921180001F098F83B00C0227E
:100520001A603B0000221A713B0000225A713B0006
:100530000122DA713B00054A1900100000F0AEFFFD
:10054000C046BD4602B080BD000800480004004817
:1005500080B500AF00F008FC00F0D0FB02210020C5
:1005600000F0D6FD0C4B180000F0B0FDFA235B0044
:100570001800FFF719FF0121012000F0C9FD074B0A
:10058000180000F0A3FDFA235B001800FFF70CFF32
:10059000C046BD4680BDC0460420000814200008A7
:1005A00080B500AF00F0E8FD0220FFF7FDFE00F08F
:1005B0000BF8C046802001F0A7FA031EFAD000F025
:1005C00025F8C046BD4680BD80B500AF00210020A3
:1005D00000F09EFD0B4B180000F078FD00F036FB9C
:1005E0000021012000F094FD074B180000F06EFD83
:1005F00000F046FB0300180000F0CEFDC046BD46EB
:1006000080BDC046242000082C20000890B583B08F
:1006100000AFFB1D00221A702CE0FB1D1B78032B82
:1006200002D9FB1D00221A70FB1D1B78012B0BD079
:10063000022B11D0002B17D100F024F8FB1D1A78E3
:10064000FB1D01321A7015E000F048F8FB1D1A7806
:10065000FB1D01321A700DE000F06CF8FB1D1A78DA
:10066000FB1D01321A7005E0FC1D00F08FF803003D
:100670002370C046FB1D1B78042BCED1C046BD465F
:1006800003B090BD80B500AF00F076FD0220FFF70B
:100690008BFE0021002000F03BFD0E4B180000F007
:1006A00015FD0021012000F033FD0B4B180000F078
:1006B0000DFD07E0802001F027FA0300012B01D196
:1006C00000F04CFA402001F01FFA031EF2D0C046A1
:1006D000BD4680BD382000083C20000880B500AF32
:1006E00000F04AFD0220FFF75FFE0021002000F02D
:1006F0000FFD0E4B180000F0E9FC0021012000F076
:1007000007FD0B4B180000F0E1FC07E0802001F032
:10071000FBF90300012B01D100F0A2F9402001F008
:10072000F3F9031EF2D0C046BD4680BD4C20000840
:100730005020000880B500AF00F01EFD0220FFF73A
:1007400033FE0021002000F0E3FC0E4B180000F007
:10075000BDFC0021012000F0DBFC0B4B180000F079
:10076000B5FC07E0802001F0CFF90300012B01D197
:1007700000F03AF8402001F0C7F9031EF2D0C0465D
:10078000BD4680BD602000086420000880B500AF31
:1007900000F0F2FC0220FFF707FE0021002000F02D
:1007A000B7FC0F4B180000F091FC0021012000F075
:1007B000AFFC0C4B180000F089FC07E0802001F032
:1007C000A3F90300012B01D1042305E0402001F02F
:1007D0009BF9031EF2D000231800BD4680BDC04621
:1007E000742000087820000880B582B000AFFB1D9F
:1007F00005221A7000F0C0FC0220FFF7D5FD002191
:10080000002000F085FC304B180000F05FFC002158
:10081000012000F07DFC2D4B180000F057FCFFF785
:100820008FFD0300180000F0B7FC0B21012000F041
:100830006FFC252000F048FB1BE0FB1D1B785BB222
:100840005A1D0BD0052B13D1FFF77AFD03001A00B8
:10085000FB1D1100180000F0ADF80AE0FFF770FD75
:1008600003001A00FB1D1100180000F037F800E02B
:10087000C046FB1D1B785BB2002BDED1002100209F
:1008800000F046FC124B180000F020FCFA235B003D
:100890001800FFF789FD00F06FFC0220FFF784FDD0
:1008A0000021002000F034FC0A4B180000F00EFC80
:1008B0000021012000F02CFC074B180000F006FC82
:1008C000C046BD4602B080BD8020000888200008D8
:1008D00094200008602000086420000880B582B0E1
:1008E00000AF78600A00FB1C1A70402001F00CF980
:1008F0000300012B50D1FB1C1B78052B17D97B68FB
:100900001B785BB2D9B2FB1CFA1C12788A181A70D9
:100910000821012000F0FCFBFB1C1B78180000F0F4
:100920003BFCFB1C1B781800FFF714FD1EE0FB1CB2
:100930001B78052B1AD8FB1C00221A7008210120F5
:1009400000F0E6FBFB1C1B78180000F025FCFB1CEC
:100950001B781800FFF7FEFC7B681B785BB2DBB2EC
:100960005B42DBB25AB27B681A701EE0FB1C1B783C
:10097000632B06D80A21012000F0CAFB012000F0F9
:100980005DFCFB1C1B78092B06D80921012000F017
:10099000BFFB012000F052FC802001F0B5F80300FD
:1009A000012BA2D17B6800221A70C046BD4602B05E
:1009B00080BDC04680B582B000AF78600A00FB1CE5
:1009C0001A70402001F0A0F80300012B3AD1FB1C63
:1009D0001B785E2B17D87B681B785BB2D9B2FB1CE7
:1009E000FA1C12788A181A700821012000F090FB76
:1009F000FB1C1B78180000F0CFFBFB1C1B781800B9
:100A0000FFF7A8FC1EE0FB1C1B785E2B1AD9FB1C11
:100A100064221A700821012000F07AFBFB1C1B786D
:100A2000180000F0B9FBFB1C1B781800FFF792FCC4
:100A30007B681B785BB2DBB25B42DBB25AB27B688D
:100A40001A7008E0802001F05FF80300012BB8D194
:100A50007B6800221A70C046BD4602B080BDC04609
:100A600080B500AF00F088FB0220FFF79DFC00215D
:100A7000002000F04DFB324B180000F027FB002156
:100A8000012000F045FB2F4B180000F01FFB2E4B00
:100A90001B78180000F080FB402001F035F80300BF
:100AA000012B22D1284B1B781A00284B1B78013BC5
:100AB0009A4206DA244B1B780133DAB2224B1A70C1
:100AC0000AE0214B1B781A00204B1B78013B9A420D
:100AD00002DC1D4B00221A700B21012000F018FBD4
:100AE000194B1B78180000F057FB802001F00CF820
:100AF0000300012BD0D10021002000F009FB144B92
:100B0000180000F0E3FAFA235B001800FFF74CFC32
:100B10000021002000F0FCFA0E4B180000F0D6FA7D
:100B2000092000F08BFB0021012000F0F1FA0A4BB4
:100B3000180000F0CBFAC046C046BD4680BDC04696
:100B4000A0200008AC2000085B0000203D00002031
:100B5000942000084C2000085020000880B500AF09
:100B600000F00AFB0220FFF71FFC0021002000F02C
:100B7000CFFA2F4B180000F0A9FA0021012000F055
:100B8000C7FA2C4B180000F0A1FA2B4B1B78180069
:100B900000F002FB402000F0B7FF0300012B1DD145
:100BA000254B1B78052B06D8234B1B780133DAB273
:100BB000214B1A7009E0204B1B78052B05D91F4BE0
:100BC0001B780133DAB21C4B1A700B21012000F0A4
:100BD0009FFA194B1B78180000F0DEFA802000F015
:100BE00093FF0300012BD5D10021002000F090FAE3
:100BF000134B180000F06AFAFA235B001800FFF7A5
:100C0000D3FB0021002000F083FA0E4B180000F007
:100C10005DFA092000F012FB0021012000F078FAB3
:100C2000094B180000F052FAC046C046BD4680BDD0
:100C3000B8200008AC2000083D0000205B00002028
:100C400094200008382000083C20000880B500AF40
:100C5000084B1B78012B07D1074B180000F036FA20
:100C60000620FFF7A1FB03E0044B180000F02EFA6A
:100C7000BD4680BD3C000020C4200008C8200008FC
:100C800080B500AF024B1B781800BD4680BDC04642
:100C90005A00002080B584B000AF02003960FB1D0F
:100CA0001A70FB1D1B78DB00DBB25BB240221343E2
:100CB0005BB2DBB2180000F0EFF80F23FB18002244
:100CC0001A700FE00F23FB181B783A68D3181B78B3
:100CD000180000F0F9F80F23FB180F22BA18127849
:100CE00001321A700F23FB181B78072BEAD98020DA
:100CF00000F0D2F8C046BD4604B080BD80B500AF5C
:100D0000124B19000020FFF7C5FF114B19000120FD
:100D1000FFF7C0FF0F4B19000220FFF7BBFF0E4B80
:100D200019000320FFF7B6FF0C4B19000420FFF752
:100D3000B1FF0B4B19000520FFF7ACFF094B190061
:100D40000620FFF7A7FFC046BD4680BD0400002077
:100D50000C000020140000201C00002024000020B3
:100D60002C0000203400002080B582B000AF374B4B
:100D700000221A7080239B0201211800FFF7A2F9BC
:100D80003B00F02212021A603B0001221A713B0064
:100D900003225A713B0000229A713B000222DA7151
:100DA0003A009023DB051100180000F077FB802348
:100DB0009B0201211800FFF785F93B0090221201E8
:100DC0001A603A009023DB051100180000F066FB62
:100DD000C820FFF7E9FA332000F05EF84620FFF75D
:100DE000E3FA322000F058F86420FFF7C9FA28200F
:100DF00000F052F8082000F04FF8012000F04CF805
:100E0000C820FFF7D1FA062000F046F80C2000F0C9
:100E100043F88023DB0201211800FFF753F93B0060
:100E200001221A713B0000225A713B0000229A7184
:100E30003B000222DA713B00054A1900100000F065
:100E40002DFBC046BD4602B080BDC0465C00002000
:100E50000004004880B500AFFFF772FA03001800E5
:100E6000FFF778FA034B0121180000F0B9FCC046E7
:100E7000BD4680BD0048014080B500AF0020FFF7AF
:100E80003DFA044B0021180000F0AAFCC046BD4604
:100E900080BDC0460048014080B582B000AF02006E
:100EA000FB1D1A7080235A009023DB0511001800E7
:100EB00000F0BCFBFB1D1B78180000F01DF8C046BD
:100EC000BD4602B080BDC04680B582B000AF020012
:100ED000FB1D1A7080235A009023DB0511001800B7
:100EE00000F094FBFB1D1B78180000F005F8C046CD
:100EF000BD4602B080BDC04680B582B000AF0200E2
:100F0000FB1D1A7080231A019023DB0511001800C5
:100F100000F07CFBFB1D1B781022134008D08023BF
:100F20005A019023DB051100180000F06FFB07E069
:100F300080235A019023DB051100180000F076FB96
:100F4000FB1D1B782022134008D080239A01902398
:100F5000DB051100180000F059FB07E080239A011F
:100F60009023DB051100180000F060FBFB1D1B78CF
:100F70004022134008D08023DA019023DB051100C2
:100F8000180000F043FB07E08023DA019023DB0523
:100F90001100180000F04AFBFB1D1B785BB2002B10
:100FA00008DA80231A029023DB051100180000F0F4
:100FB0002DFB07E080231A029023DB0511001800A7
:100FC00000F034FBC04680231A019023DB0511009A
:100FD000180000F02BFB2820FFF7D2F980231A011C
:100FE0009023DB051100180000F010FBFB1D1B789F
:100FF0000122134008D080235A019023DB05110001
:10100000180000F003FB07E080235A019023DB0562
:101010001100180000F00AFBFB1D1B780222134090
:1010200008D080239A019023DB051100180000F0FE
:10103000EDFA07E080239A019023DB0511001800E8
:1010400000F0F4FAFB1D1B780422134008D0802323
:10105000DA019023DB051100180000F0D7FA07E051
:101060008023DA019023DB051100180000F0DEFA7E
:10107000FB1D1B780822134008D080231A029023FE
:10108000DB051100180000F0C1FA07E080231A0206
:101090009023DB051100180000F0C8FAC046802339
:1010A0001A019023DB051100180000F0BFFA282078
:1010B000FFF766F9044B1B780133DAB2024B1A7062
:1010C000C046BD4602B080BD5C00002080B584B043
:1010D00000AF78600F23FB1800221A700DE07B68C8
:1010E0005A1C7A601B781800FFF7EEFE0F23FB18DE
:1010F0001A780F23FB1801321A707B681B78002BBB
:10110000EDD10F23FB181B781800BD4604B080BD3D
:1011100080B584B000AF0200FB1D1A70BB1D0A1C15
:101120001A70FB1D1B78002B04D10F23FB18002223
:101130001A7003E00F23FB1840221A700F23FB18CC
:101140000F22B918BA1D097812780A431A700F23B2
:10115000FB181B78802252421343DBB21800FFF7C2
:101160009BFE044B0F22BA1812781A70C046BD4677
:1011700004B080BD5C00002080B500AF0120FFF707
:101180008BFE0220FFF710F9024B00221A70C046B6
:10119000BD4680BD5C00002080B586B000AF7860A1
:1011A0001723FB1800221A700823FA18224B10008C
:1011B00019000C231A0000F0E7FE0823FA187B68D8
:1011C0001100180000F050F81623FB1800221A70C6
:1011D00026E01623FB181B780822BA18D35C002BD4
:1011E00017D01623FB181B780822BA18D35C202BC3
:1011F0000FD01623FB181B780822BA18D35C1800EE
:10120000FFF762FE1723FB181A781723FB18013229
:101210001A701623FB181A781623FB1801321A705D
:101220001623FB181B780B2BD3D91723FB181B781D
:101230001800BD4606B080BDCC20000880B582B045
:1012400000AF0200FB1D1A7002E02020FFF73CFEF9
:10125000FB1D1B78FA1D591E1170002BF5D1C046DD
:10126000BD4602B080BDC04690B58BB000AF78607F
:1012700039602723FB1800221A707B68BB61BB69A9
:10128000002B02DA7B685B427B6000233B623C6A96
:10129000631C3B627B680A21180000F06FFE0B00A4
:1012A000DBB23033DAB20C23FB181A552723FB18B4
:1012B0001A782723FB1801321A707B680A2118005C
:1012C00000F076FD03007B607B68002BDFDCBB69F0
:1012D000002B0DDA3B6A5A1C3A620C22BA182D21F7
:1012E000D1542723FB181A782723FB1801321A70D0
:1012F0000023FB610FE0FB693A68D3182722BA1874
:101300001178FA698A1A013A0C2179188A5C1A70E4
:10131000FB690133FB612723FB181A78FB699A42AA
:10132000E9DC2723FB181B781800BD460BB090BDE5
:1013300080B500AF1B4B1B4A126801210A431A609B
:10134000184B184A526818490A405A60154B154AFA
:10135000126816490A401A60124B124A1268144960
:101360000A401A600F4B0F4A526812490A405A60ED
:101370000C4B0C4AD26A0F218A43DA62094B094AA4
:10138000126B0D490A401A63064B064A526B012143
:101390008A435A63034B00229A6000F00FF8C0465C
:1013A000BD4680BD001002400CB8FFF8FFFFF6FEFE
:1013B000FFFFFBFFFFFFC0FFACFEFFFF80B582B069
:1013C00000AF00237B6000233B60314B304A126842
:1013D000802149020A431A602D4B1A6880239B0220
:1013E00013403B607B6801337B603B68002B04D17A
:1013F0007A68A023DB019A42EED1254B1A6880233C
:101400009B02134002D001233B6001E000233B60BC
:101410003B68012B38D11F4B11221A601C4B1C4A10
:1014200052685A601A4B1A4A52685A60184B184A46
:10143000526819490A405A60154B154A526888216A
:1014400049030A435A60124B114A12688021490429
:101450000A431A60C0460E4B1A6880239B0413404F
:10146000F9D00B4B0A4A526803218A435A60084B51
:10147000074A526802210A435A60C046044B5B681F
:101480000C221340082BF9D1C046BD4602B080BDE6
:101490000010024000200240FFFFC0FF80B586B070
:1014A00000AF7860396000237B6100233B6100233B
:1014B000FB6000237B617CE001227B699A40130082
:1014C0003B613B681B683A691340FB60FA683B6903
:1014D0009A426BD13B681B79012B03D03B681B7987
:1014E000022B34D17B689B687A69520003219140BA
:1014F0000A00D2431A407B689A607B689A683B680E
:101500005B7919007B695B0099400B001A437B688B
:101510009A607B689B889BB27A6992B21100012223
:101520008A4092B2D24392B213409AB27B689A80B8
:101530007B689B889AB23B689B7919007B699BB258
:1015400099400B009BB213439AB27B689A807B68E8
:101550001B687A695200032191400A00D2431A4065
:101560007B681A607B681A683B681B7919007B6985
:101570005B0099400B001A437B681A607B68DB684C
:101580007A6992B25200032191400A00D2431A4074
:101590007B68DA607B68DA683B68DB7919007B6915
:1015A0005B0099400B001A437B68DA607B6901336A
:1015B0007B617B690F2B00D87EE7C046BD4606B035
:1015C00080BDC04680B584B000AF78600A00BB1C07
:1015D0001A800F23FB1800221A707B681B8A9BB2AB
:1015E000BA1C128813409BB2002B04D00F23FB18A7
:1015F00001221A7003E00F23FB1800221A700F2338
:10160000FB181B781800BD4604B080BD80B582B0C1
:1016100000AF78600A00BB1C1A80BB1C1A887B686C
:101620009A61C046BD4602B080BDC04680B582B05A
:1016300000AF78600A00BB1C1A807B68BA1C128855
:101640001A85C046BD4602B080BDC04680B584B094
:1016500000AF786008001100BB1C021C1A807B1CC4
:101660000A1C1A700023FB600023BB607B1C1A78E5
:10167000BB1C1B8807210B409B009A401300FB609A
:10168000BB1C1B88DB089BB21800BB1C1B88DB083B
:101690009BB21A007B6808329200D358BA1C128899
:1016A00007210A4092000F2191400A00D2431A40BC
:1016B00011007B68020008329200D150BB1C1B88CD
:1016C000DB089BB21A007B6808329200D258FB6894
:1016D0001343BB60BB1C1B88DB089BB21A007B68F2
:1016E00008329200B968D150C046BD4604B080BDF2
:1016F00080B584B000AF786039600E23FB180022FB
:101700001A800E23FB187A6812881A807B682D4A8B
:10171000934208D07A688023DB059A4203D07B6825
:10172000294A934210D10E23FB180E22BA181288B0
:1017300070218A431A803B6859880E23FB180E22B9
:10174000BA1812880A431A807B68204A934210D044
:101750000E23FB180E22BA1812881D490A401A805F
:101760003B6819890E23FB180E22BA1812880A4307
:101770001A807B680E22BA1812881A803B685A6851
:101780007B68DA623B681A887B681A857B680D4A39
:1017900093420BD07B680F4A934207D07B680E4A76
:1017A000934203D07B680D4A934204D13B689B7AF5
:1017B0009AB27B681A867B6801229A82C046BD462F
:1017C00004B080BD002C0140000400400010004027
:1017D000FFFCFFFF00400140004401400048014081
:1017E00080B582B000AF78600A00FB1C1A70FB1C49
:1017F0001B78002B08D07B681B889BB20122134307
:101800009AB27B681A8007E07B681B889BB2012232
:1018100093439AB27B681A80C046BD4602B080BD31
:1018200080B582B000AF78600A00FB1C1A70FB1C08
:101830001B78002B0AD07B6844229B5A9BB20A4A31
:10184000134399B27B684422995209E07B68442291
:101850009B5A9BB25B045B0C99B27B684422995201
:10186000C046BD4602B080BD0080FFFF80B584B099
:1018700000AF786039600A23FB1800221A800E231B
:10188000FB1800221A800C23FB1800221A807B68A8
:101890001B8C9BB2012293439AB27B681A840E235D
:1018A000FB187A68128C1A800C23FB187A689288CD
:1018B0001A800A23FB187A68128B1A800A23FB18F5
:1018C0000A22BA18128870218A431A800A23FB1848
:1018D0000A22BA18128803218A431A803B681988A1
:1018E0000A23FB180A22BA1812880A431A800E2308
:1018F000FB180E22BA18128802218A431A803B680C
:1019000099890E23FB180E22BA1812880A431A80EE
:101910003B6859880E23FB180E22BA1812880A4316
:101920001A807B68344A93420BD07B68334A9342D7
:1019300007D07B68324A934203D07B68314A934296
:1019400043D10E23FB180E22BA18128808218A43AD
:101950001A803B68D9890E23FB180E22BA18128808
:101960000A431A800E23FB180E22BA18128804218B
:101970008A431A803B6899880E23FB180E22BA18F6
:1019800012880A431A800C23FB180C22BA181288FA
:101990001D490A401A800C23FB180C22BA18128821
:1019A0001A490A401A803B68198A0C23FB180C223A
:1019B000BA1812880A431A803B68598A0C23FB180C
:1019C0000C22BA1812880A431A807B680C22BA18B3
:1019D00012889A807B680A22BA1812881A833B6898
:1019E0009A687B685A637B680E22BA1812881A8438
:1019F000C046BD4604B080BD002C014000400140FF
:101A00000044014000480140FFFEFFFFFFFDFFFFD3
:101A100080B582B000AF786008001100BB1C021CCA
:101A20001A807B1C0A1C1A707B1C1B78002B09D0A7
:101A30007B689B899AB2BB1C1B8813439AB27B6854
:101A40009A810AE07B689B899BB2BA1C1288D243B8
:101A500092B213409AB27B689A81C046BD4602B0EA
:101A600080BDC04680B584B000AF78600A00BB1C62
:101A70001A800F23FB1800221A700C23FB18002277
:101A80001A800A23FB1800221A807B681B8A9AB2EC
:101A90000C23FB18B91C09880A401A807B689B89B3
:101AA0009AB20A23FB18B91C09880A401A800C2331
:101AB000FB181B88002B09D00A23FB181B88002B5E
:101AC00004D00F23FB1801221A7003E00F23FB1828
:101AD00000221A700F23FB181B781800BD4604B0B3
:101AE00080BDC04680B582B000AF78600A00BB1CE4
:101AF0001A80BB1C1B88DB439AB27B681A82C046E3
:101B0000BD4602B080BDC04690B585B000AF0200B2
:101B1000FB1D1A70FB1D1B789BB20F22BC180D4ACF
:101B200019001000FFF74EFD030023700F23FB1870
:101B30001B78002B06D1FA235B001800FEF734FC5B
:101B4000012303E0044B00221A7000231800BD4655
:101B500005B090BD000400488400002090B583B01B
:101B600000AFFC1D9023DB0501211800FFF72AFDC3
:101B700003002370FB1D1B78012B24D1194B1B780C
:101B8000002B20D1184B1B78002B0CD1164B0122B7
:101B90001A70FFF771F980239B00144A1900100096
:101BA000FFF744FD0BE0104B00221A70FFF752F9CB
:101BB00080239B000D4A19001000FFF727FD094BF9
:101BC00001221A700AE0FB1D1B78002B06D1054B81
:101BD0001B78012B02D1034B00221A70C046BD4670
:101BE00003B090BD8600002085000020000800485A
:101BF00080B584B000AF78600023FB607B689B7881
:101C0000002B39D0244A7B681B789B08DBB2C03399
:101C10009B009B58FB607B681B781A0003231340D2
:101C2000DB00FF229A401300DA43FB681340FB609D
:101C30007B685B789B01FF221A407B681B78190048
:101C400003230B40DB009A401300FA681343FB6048
:101C500011497B681B789B08DBB2C0339B00FA6894
:101C60005A500D4B7A68127811001F220A40012148
:101C700091400A001A600AE007497B681B781A0045
:101C80001F23134001229A40130080228B50C0462C
:101C9000BD4604B080BDC04600E100E0002243081C
:101CA0008B4274D303098B425FD3030A8B4244D324
:101CB000030B8B4228D3030C8B420DD3FF22090266
:101CC00012BA030C8B4202D31212090265D0030B25
:101CD0008B4219D300E0090AC30B8B4201D3CB031B
:101CE000C01A5241830B8B4201D38B03C01A52415D
:101CF000430B8B4201D34B03C01A5241030B8B425F
:101D000001D30B03C01A5241C30A8B4201D3CB0249
:101D1000C01A5241830A8B4201D38B02C01A52412E
:101D2000430A8B4201D34B02C01A5241030A8B4231
:101D300001D30B02C01A5241CDD2C3098B4201D349
:101D4000CB01C01A524183098B4201D38B01C01AC7
:101D5000524143098B4201D34B01C01A524103093E
:101D60008B4201D30B01C01A5241C3088B4201D3ED
:101D7000CB00C01A524183088B4201D38B00C01A9A
:101D8000524143088B4201D34B00C01A5241411AC1
:101D900000D20146524110467047FFE701B50020CE
:101DA00000F0F0F802BDC0460029F7D076E7704792
:101DB00003460B437FD4002243088B4274D30309AC
:101DC0008B425FD3030A8B4244D3030B8B4228D34D
:101DD000030C8B420DD3FF22090212BA030C8B4273
:101DE00002D31212090265D0030B8B4219D300E013
:101DF000090AC30B8B4201D3CB03C01A5241830B98
:101E00008B4201D38B03C01A5241430B8B4201D347
:101E10004B03C01A5241030B8B4201D30B03C01A70
:101E20005241C30A8B4201D3CB02C01A5241830AEA
:101E30008B4201D38B02C01A5241430A8B4201D319
:101E40004B02C01A5241030A8B4201D30B02C01A43
:101E50005241CDD2C3098B4201D3CB01C01A5241AA
:101E600083098B4201D38B01C01A524143098B4233
:101E700001D34B01C01A524103098B4201D30B011C
:101E8000C01A5241C3088B4201D3CB00C01A524141
:101E900083088B4201D38B00C01A524143088B4206
:101EA00001D34B00C01A5241411A00D2014652419F
:101EB000104670475DE0CA0F00D04942031000D3BE
:101EC0004042534000229C4603098B422DD3030A13
:101ED0008B4212D3FC22890112BA030A8B420CD323
:101EE000890192118B4208D3890192118B4204D34C
:101EF00089013AD0921100E08909C3098B4201D3CC
:101F0000CB01C01A524183098B4201D38B01C01A05
:101F1000524143098B4201D34B01C01A524103097C
:101F20008B4201D30B01C01A5241C3088B4201D32B
:101F3000CB00C01A524183088B4201D38B00C01AD8
:101F40005241D9D243088B4201D34B00C01A5241AF
:101F5000411A00D20146634652415B10104601D33C
:101F60004042002B00D54942704763465B1000D3C6
:101F7000404201B5002000F005F802BD0029F8D06C
:101F800016E770477047C04670B50F2A32D90C006B
:101F900004430B00A40731D115000400103D2D09A6
:101FA00001352D0149191E6826605E6866609E68CD
:101FB000A660DE681033E66010349942F3D10F2337
:101FC00045191340032B1BD91C1F0023A4080134FF
:101FD000A400CE58EE5004339C42FAD103232D19AD
:101FE00009191A4005D00023CC5CEC5401339A4205
:101FF000FAD170BD0500002AF5D1FAE70500F2E735
:102000001A00F8E750726F6D456C2020323031387D
:10201000000000005072657373757265206D657401
:102020006572000053746174653A200050726573E4
:10203000737572653A200000312E0000557070658E
:1020400072207468726573686F6C6400322E0000D1
:102050004C6F776572207468726573686F6C64008A
:10206000332E000042726967687420636F6E747269
:102070006F6C0000342E0000457869740000000089
:102080005365742E2E2E00004272696768743D20DD
:1020900000000000536176696E672E2E2E0000004E
:1020A0005365744D696E2E2E2E00000054687265C3
:1020B00073686F6C643D20005365744D61782E2EFB
:1020C0002E0000004F4E20004F46460020202020CA
:0820D000202020202020202008
:1020D800320000000E1111111111111F0E111111F2
:1020E80011111F1F0E111111111F1F1F0E11111198
:1020F8001F1F1F1F0E11111F1F1F1F1F0E111F1F34
:102108001F1F1F1F0E1F1F1F1F1F1F1F010600005D
:10211800006CDC0200000000000000000102030463
:042128000607080995
:0400000508000000EF
:00000001FF
